:020000040800F2
:1000000020070020ED000008F5000008F7000008B8
:10001000F9000008FB000008FD00000800000000D7
:10002000000000000000000000000000FF000008C9
:10003000010100080000000003010008050100089C
:100040000701000807010008070100080701000870
:100050000701000807010008070100080701000860
:100060000701000807010008070100080701000850
:100070000701000807010008070100080701000840
:100080000701000807010008070100080701000830
:100090000701000807010008070100080701000820
:1000A0000701000807010008070100080701000810
:1000B0000701000807010008070100080701000800
:1000C00007010008070100080701000807010008F0
:1000D00007010008070100080701000807010008E0
:1000E00007010008070100080701000809488047C8
:1000F00009480047FEE7FEE7FEE7FEE7FEE7FEE70A
:10010000FEE7FEE7FEE7FEE704480549054A064B21
:10011000704700006102000895610008200100207E
:100120002007002020030020200300207047704794
:100130007047000080B500F001F880BD84B0002059
:100140000390029041F20001C4F20201086840F4F9
:1001500080300860FFE741F20000C4F2020000684E
:1001600000F400300290039801300390FFE70299F9
:100170000020019039B9FFE70398B0F5A06018BFDF
:1001800001200190FFE70198C0070028E3D1FFE7B5
:1001900041F20000C4F2020000688003002803D589
:1001A000FFE70120029002E000200290FFE70298A2
:1001B000012851D1FFE742F20001C4F202010868B0
:1001C00040F010000860086820F007000860086828
:1001D00040F00200086041F20401C4F20201009103
:1001E0000868086008680860086840F48060086073
:1001F000086820F47C100860086840F4E810086083
:1002000041F20001C4F20201086840F08070086009
:10021000FFE741F20000C4F20200006880010028FC
:1002200001D4FFE7F5E741F20401C4F202010868D6
:1002300020F003000860086840F002000860FFE753
:1002400041F20400C4F20200006800F00C0008282B
:1002500001D0FFE7F4E700E0FFE704B070470000DB
:1002600080B541F20002C4F20202106840F00100C1
:10027000106041F20401C4F2020108680023CFF6C5
:10028000FF031840086010684FF6FF73CFF6F6635F
:1002900018401060106820F480201060086820F476
:1002A000FE00086041F20801C4F202014FF41F0091
:1002B0000860FFF73FFF4EF60851CEF200014FF005
:1002C0000060086080BD000001F0B7FD4FF0000045
:1002D0004FF000014FF4A0734FF0F0044FF6FF7A97
:1002E00003F021F84FF014004FF014014FF496730F
:1002F0004FF0DC04DFF8F0A003F015F84FF05506DE
:100300004FF01E074FF6FF7802F0FEFB4FF06C0631
:100310004FF01E074FF6FF7802F0BBFD4FF081064D
:100320004FF01E074FF6FF7802F030FE4FF09306B5
:100330004FF01E074FF6FF7802F0C1FE4FF0A30604
:100340004FF01E074FF6FF7802F00BFF4FF0B40698
:100350004FF01E074FF6FF7802F075FB4FF0CB060B
:100360004FF01E074FF6FF7802F093FD4FF0640642
:100370004FF03C074FF6FF7802F0A1FE4FF07306F6
:100380004FF03C074FF6FF7802F0C2FE4FF08606B2
:100390004FF03C074FF6FF7802F0E3FE4FF09B066C
:1003A0004FF03C074FF6FF7802F0DBFE4FF0AE0651
:1003B0004FF03C074FF6FF7802F09FFD4FF0BC0670
:1003C0004FF03C074FF6FF7802F063FD01F07AF83A
:1003D00001F008F801F03EF804484FF0010AA0F8D7
:1003E00000A0034806E000007A786E00320000208A
:1003F000080C014001684FF001024FEA822201EA35
:100400000201002908D000F0EDFF01F023F80348B5
:100410004FF0010AA0F800A0014803E032000020DC
:100420000810014001684FF001024FEA823201EAF0
:100430000201002908D001F045F800F09BFF0348B5
:100440004FF0020AA0F800A0014803E032000020AB
:100450000808014001684FF001024FEA422201EA18
:1004600002010029BDD055480188022900D001E0D1
:1004700000F00BF803F098F80188012900D001E0A2
:1004800000F0E2F803F090F8ABE72DE9FF5F01F030
:10049000D4FC4FF000004FF000014FF4A0734FF078
:1004A000F0044FF0000A02F03EFF4FF022004FF040
:1004B00046014FF48F734FF0F2044FF01F0A02F021
:1004C00032FF4FF005004FF0E60140F23B134FF0D2
:1004D000F0044FF01F0A02F026FF4FF00A004FF021
:1004E000E6014FF49B734FF0E9044FF0000A02F06D
:1004F0001AFF4FF056064FF0000A4FF007074FF073
:1005000006084FF03A0502F0E6FE05F122057F1ECF
:10051000002FF8DC06F11A06B8F101084FF00707C2
:10052000B8F1000FEDDC01F0B2FD01F0A1FF4FF6D4
:10053000E07A01F0D9FF4FF0C8064FF005074FF6FB
:10054000E07802F0A6FC4FF0DC064FF005074FF60E
:10055000E07802F012FC4FF0F1064FF005074FF67D
:10056000E07802F06DFC4FF480764FF005074FF60F
:10057000E07802F049FC40F213104FF00A014FF40A
:100580008C734FF00F044FF6E07A02F0CCFE40F28D
:1005900013104FF014014FF48C734FF019044FF601
:1005A000E07A02F0C0FE4FF48E764FF005074FF070
:1005B0001F0802F003F8024804E0000032000020A7
:1005C0000808014001684FF001024FEA022201EAE7
:1005D0000201002900D077E601F061F901F09BF8F3
:1005E000004801E0080C014001684FF001024FEAA9
:1005F000C22201EA0201002901D001F0C4FD014834
:1006000002E00000080C014001684FF001024FEACF
:10061000822201EA0201002901D001F0E3FD014834
:1006200002E000000810014001684FF001024FEAAB
:10063000823201EA0201002901D001F016FB02F02A
:10064000A8FFB8E7BDE8FF9F01F0F7FB4FF00000FF
:100650004FF000014FF4A0734FF0F0044FF0000A88
:1006600002F061FE4FF000004FF02A014FF4A0733A
:100670004FF02A044FF4FC6A02F055FE4FF00000E0
:100680004FF0BB014FF4A0734FF0BE044FF61F0AAA
:1006900002F049FE4FF07806034806804FF0E1076C
:1006A0004FF6E07802E000003400002000F00FFC7C
:1006B0004FF6FF7A00F07BFB4FF00A064FF005077C
:1006C0004FF6E07802F019FC4FF01C064FF00507DA
:1006D0004FF6E07802F0F3FC4FF02E064FF00507DE
:1006E0004FF6E07802F03DFD4FF040064FF0050771
:1006F0004FF6E07802F09EFC4FF054064FF00507ED
:100700004FF6E07802F0C5FB4FF069004FF00A01A8
:100710004FF06E034FF00F044FF6E07A02F003FE45
:100720004FF069004FF014014FF06E034FF01904C1
:100730004FF6E07A02F0F7FD4FF0C8064FF00507DC
:100740004FF6E07802F0A5FB4FF0DC064FF005070E
:100750004FF6E07802F011FB4FF0F1064FF005077D
:100760004FF6E07802F06CFB4FF480764FF005070F
:100770004FF6E07802F048FB40F213104FF00A0108
:100780004FF48C734FF00F044FF6E07A02F0CBFD7C
:1007900040F213104FF014014FF48C734FF0190412
:1007A0004FF6E07A02F0BFFD4FF48E764FF005076A
:1007B0004FF01F0801F002FF0A48B0F800C00A48D5
:1007C00007884FF4784800F04AFB4FF0000A00F029
:1007D000C0FB064801883C2938DA4FF00001044884
:1007E000016807E0360000203C0000204E00002099
:1007F000080C01404FF001024FEAC22201EA020157
:10080000002901D000F027FD4FF0000101480168E8
:1008100002E00000080C01404FF001024FEA822282
:1008200001EA0201002901D000F073FB01480168D0
:1008300002E00000080C01404FF001024FEA0222E2
:1008400001EA0201002902D0FFE700E09CE04FF03E
:1008500000004FF0BB014FF4A0734FF0BE044FF601
:100860001F0A02F060FD00F018FD00F0FCF94FF4E3
:10087000784800F0F4FA4FF6FF7A00F098FA014851
:1008800002E000004C0000200688042E4BD006F148
:100890000106068000E070E04FF00001004801E032
:1008A00040000020018804484FF0000202884FF009
:1008B0000003024804E00000420000203400002051
:1008C000038801F10A01994224DD4FF0000403F18D
:1008D0006703A1F1140199421FDC4FF0000545EABE
:1008E0000407014802E00000420000204FF000022F
:1008F00002884FF000064FF0E106A6F11906B24259
:100900000EDA4FF0000808EA0708B8F1010F3CD0F2
:10091000C1E708E04FF00104D9E74FF00105DEE739
:100920004FF00108EFE74FF0000606800CF1050CD0
:1009300000F082F9004801E0500000200788BB4623
:100940000BF1060BBBF1BE0F1FDA014802E00000FD
:100950003C000020078800F050FA07F101070780EB
:100960009E4800F057F9B0F800B00BF1010BA0F869
:1009700000B04FF4784800F072FA02F015FE02F071
:1009800013FE02F011FE22E796E0954801684FF051
:1009900001024FEA023241EA020101804FF03200C7
:1009A0004FF032014FF0FA034FF096044FF6FF7A02
:1009B00002F0B9FC4FF04B064FF03C074FF0000837
:1009C00002F084F94FF064064FF03C074FF0000846
:1009D00002F0C7FB4FF078064FF03C074FF00008DD
:1009E00002F0AEF94FF09B064FF03C074FF00008C5
:1009F00002F0CCFA4FF0AF064FF03C074FF0000882
:100A000002F0AFFB4FF0C3064FF03C074FF0000879
:100A100002F073FA4FF0D2064FF03C074FF0000897
:100A200002F0F2F94FF04B064FF05A074FF0000872
:100A300002F045FB4FF05A064FF05A074FF00008FE
:100A400001F0C0FF4FF073064FF05A074FF0000857
:100A500002F0DAF94FF0A0064FF05A074FF01F08E6
:100A600001F0ACFD4FF04B064FF078074FF0000857
:100A700002F00FFA4FF05A064FF078074FF00008D7
:100A800002F07BF94FF073064FF078074FF0000843
:100A900002F0BAF94FF0A0064FF078074FF01F08A8
:100AA00002F05FFB4E4801684FF001024FEA02324C
:100AB00041EA020101808EE0494801684FF00102DD
:100AC0004FEA023241EA020101804FF032004FF05A
:100AD00032014FF0FA034FF096044FF6FF7A02F01E
:100AE00022FC4FF04B064FF03C074FF0000802F09D
:100AF000EDF84FF064064FF03C074FF0000802F0AD
:100B000030FB4FF078064FF03C074FF0000802F042
:100B100017F94FF09B064FF03C074FF0000801F02B
:100B2000F3FF4FF0AF064FF03C074FF0000802F024
:100B300018FB4FF0C3064FF03C074FF0000801F0E0
:100B400041FF4FF04B064FF05A074FF0000802F0FC
:100B5000B6FA4FF05A064FF05A074FF0000801F06E
:100B600031FF4FF073064FF05A074FF0000802F0C4
:100B70004BF94FF0A0064FF05A074FF01F0801F055
:100B80001DFD4FF04B064FF078074FF0000802F0C4
:100B900080F94FF05A064FF078074FF0000802F046
:100BA000ECF84FF073064FF078074FF0000802F0B2
:100BB0002BF94FF0A0064FF078074FF01F0802F016
:100BC000D0FA074801684FF001024FEA023241EAC9
:100BD00002010180FFE7034806E000003A00002020
:100BE0000C0C01400808014001684FF001024FEA77
:100BF000022201EA0201002902D0FFF765BBFFE7EC
:100C000001684FF001024FEA422201EA0201002985
:100C1000E1D019E52DE9FF5F15484FF000013829B3
:100C200008DC13480844026802F10102026001F185
:100C30000401F4E7BDE8FF9F2DE9FF5F0C48016860
:100C40004FF000020B46382A09DC094810440168BD
:100C5000994200DC00E00B4602F10402F3E705488C
:100C60000360BDE8FF9F2DE9FF5F014804E000003D
:100C700054000020500000204FF0000138295CD0C3
:100C8000004801E054000020084402684FF00009C9
:100C900009F17F4909F57F0902EA09094FEA194973
:100CA000004B01E0400000201C884C4517DA01F1A0
:100CB0000401E3E7004D01E0420000202E880148D6
:100CC00002E0000054000020084402684FF6FF7A5A
:100CD00002EA0A0A0AF1060A564507DD56E009F15A
:100CE00014094C45E6DD01F10401C7E70448028818
:100CF0004FF0010202800348B0F800C004E0000099
:100D00004A000020440000204FF0140CA0F800C05E
:100D100001480844026801E0540000204FF0000739
:100D200007F17F4707F57F0702EA07074FEA1747F2
:100D30004FF0000B07F1110B00E02AE001480844D6
:100D4000026801E0540000204FF6FF7802EA08082C
:100D50004DF8048D0948B0F8008008F10108A0F8AA
:100D600000805DF8048B4FF0000C08F1060C00F0D9
:100D700012F803480844026804E000004E00002016
:100D800054000020A2F10A02026002E001F1040115
:100D900074E7BDE8FF9F2DE9FF5F384641465B469B
:100DA00064464FF0000A02F0BEFABDE8FF9F2DE94D
:100DB000FF5F02480688024804E00000400000206F
:100DC00042000020078830463946334603F10D03C0
:100DD0003C4604F1080402F0A6FA304600F1020095
:100DE0003946A1F10301334603F10A033C4604F1FD
:100DF0000B0402F098FABDE8FF9F2DE9FF5F4FF06A
:100E000000004FF02F014FF4A0734FF0BB044FF0E0
:100E1000000A02F088FABDE8FF9F2DE9FF5F554800
:100E2000B0F800C0544806885448078865462846EC
:100E3000394605F111052B463C4604F10604C2462D
:100E400002F071FA05F10405B542F0DB07F10A077B
:100E50004B48B0F800B05F45E8DBBDE8FF9F2DE9E7
:100E6000FF5F4448B0F800C04348068865464FF02D
:100E70000008424807884048068805F11105B54238
:100E800023DAA5F111053F48404402684FF6FF7987
:100E900002EA090928463946034603F111030C46C4
:100EA00004F1060409F107094C4509DAB8F1380FD5
:100EB00006DC4FF4784A02F036FA07F10A07E2E757
:100EC00008F1040805F11505D3E7BDE8FF9F2DE9FA
:100ED000FF452D4806884FF0E10730463946334636
:100EE00003F150033C4604F10A04C24602F01BFA27
:100EF0003046A0F10500394601F10201334603F105
:100F000055033C4604F10704C24602F00CFABDE862
:100F1000FF852DE9FF451C480688052E17DD4FF09B
:100F2000E107304600F12D003946334603F1550301
:100F30003C4604F10A044FF0000A02F0F4F9A6F16D
:100F40002806114806804FF6E078FFF7C0FFBDE89D
:100F5000FF852DE9FF5F4FF073004FF005014FF063
:100F6000AB034FF023044FF0000A02F0DCF907480E
:100F700004880DE036000020380000203C000020EE
:100F80003A00002054000020340000204E000020D1
:100F90002146224623464FF0640591FBF5F14FF0C0
:100FA000640801FB08F6A4EB06044FF00A0894FB62
:100FB000F8F24FF00A0802FB08F7A4EB0703002938
:100FC00000D007E04FF073064FF005074FF6E078CA
:100FD00001F0F4FA012900D007E04FF073064FF05A
:100FE00005074FF6E07801F008FB022900D007E082
:100FF0004FF073064FF005074FF6E07801F00CFB59
:10100000032900D007E04FF073064FF005074FF6B5
:10101000E07801F046FB042900D007E04FF07306AA
:101020004FF005074FF6E07801F071FB052900D07D
:1010300007E04FF073064FF005074FF6E07801F038
:101040008FFB062900D007E04FF073064FF005072D
:101050004FF6E07801F0C9FB072900D007E04FF018
:1010600073064FF005074FF6E07801F003FC0829FE
:1010700000D007E04FF073064FF005074FF6E07819
:1010800001F016FC092900D007E04FF073064FF07D
:1010900005074FF6E07801F050FC002A00D007E089
:1010A0004FF085064FF005074FF6E07801F086FA1D
:1010B000012A00D007E04FF085064FF005074FF6F4
:1010C000E07801F09AFA022A00D007E04FF0850696
:1010D0004FF005074FF6E07801F09EFA032A00D0A2
:1010E00007E04FF085064FF005074FF6E07801F076
:1010F000D8FA042A00D007E04FF085064FF0050724
:101100004FF6E07801F003FB052A00D007E04FF02E
:1011100085064FF005074FF6E07801F021FB062A1F
:1011200000D007E04FF085064FF005074FF6E07856
:1011300001F05BFB072A00D007E04FF085064FF077
:1011400005074FF6E07801F095FB082A00D007E08C
:101150004FF085064FF005074FF6E07801F0A8FB49
:10116000092A00D007E04FF085064FF005074FF63B
:10117000E07801F0E2FB002B00D007E04FF097068B
:101180004FF005074FF6E07801F018FA012B00D078
:1011900007E04FF097064FF005074FF6E07801F0B3
:1011A0002CFA022B00D007E04FF097064FF005070E
:1011B0004FF6E07801F030FA032B00D007E04FF053
:1011C00097064FF005074FF6E07801F06AFA042B16
:1011D00000D007E04FF097064FF005074FF6E07894
:1011E00001F095FA052B00D007E04FF097064FF07D
:1011F00005074FF6E07801F0B3FA062B00D007E0C0
:101200004FF097064FF005074FF6E07801F0EDFA42
:10121000072B00D007E04FF097064FF005074FF679
:10122000E07801F027FB082B00D007E04FF097068D
:101230004FF005074FF6E07801F03AFB092B00D09C
:1012400007E04FF097064FF005074FF6E07801F002
:1012500074FBBDE8FF9F2DE9FF45134806884FF05A
:10126000E60C664517DA4FF0E1073046A0F10500BD
:101270003946334603F123033C4604F10A044FF098
:10128000000A02F050F806F12806074806804FF6DB
:10129000E078FFF71CFEBDE8FF852DE9FF5F0348FE
:1012A00006880348078805E034000020400000203D
:1012B000420000204FF0000AFFF779FD0548B0F822
:1012C00000800548B0F80090044804880448058868
:1012D00008E00000440000204600002048000020F4
:1012E0004A000020002C00D00AE040F2311C664584
:1012F00001DA46440DE04FF00104A6EB080608E0D1
:101300000F2E02DDA6EB080603E04FF00004464472
:10131000FFE7024806800248048003E04000002006
:1013200048000020002D00D00CE04FF02A0000F112
:101330000A00874202DDA7EB09070CE04FF0010528
:101340004F4408E0CE2F01DC4F4404E04FF000058D
:10135000A7EB0907FFE74FF6FF7A0248078002482C
:10136000058003E0420000204A000020FFF71FFD37
:10137000BDE8FF9F2DE9FF454FF055004FF0A0015C
:101380004FF0D5034FF0C8044FF0000A01F0CBFF37
:101390004FF064064FF0AA074FF4784801F017FCAD
:1013A0004FF077064FF0AA074FF4784801F054FC4D
:1013B0004FF088064FF0AA074FF4784801F043FB3E
:1013C0004FF09F064FF0AA074FF4784801F061FDF7
:1013D0004FF0BE064FF0AA074FF4784801F01CF911
:1013E000BDE8FF852DE9FF454FF055004FF0A00106
:1013F0004FF0D5034FF0C8044FF6FF7A01F093FF8A
:101400004FF064064FF0AA074FF0000801F0DFFB31
:101410004FF077064FF0AA074FF0000801F01CFCD0
:101420004FF088064FF0AA074FF0000801F00BFBC1
:101430004FF09F064FF0AA074FF0000801F029FD7A
:101440004FF0BE064FF0AA074FF0000801F0E4F895
:10145000BDE8FF852DE9FF454FF055004FF06401D1
:101460004FF0D5034FF08C044FF0000A01F05BFF02
:101470004FF064064FF06E074FF4784801F0A7FB79
:101480004FF077064FF06E074FF4784801F0E4FB19
:101490004FF088064FF06E074FF4784801F0D3FA0A
:1014A0004FF09F064FF06E074FF4784801F0F1FCC3
:1014B0004FF0BE064FF06E074FF4784801F09DF8EC
:1014C000BDE8FF852DE9FF454FF055004FF0640161
:1014D0004FF0D5034FF08C044FF6FF7A01F023FF55
:1014E0004FF064064FF06E074FF0000801F06FFBFD
:1014F0004FF077064FF06E074FF0000801F0ACFB9D
:101500004FF088064FF06E074FF0000801F09BFA8D
:101510004FF09F064FF06E074FF0000801F0B9FC46
:101520004FF0BE064FF06E074FF0000801F065F86F
:10153000BDE8FF852DE9FF5F4FF0000A00F042FF94
:101540004FF000004FF000014FF4A0734FF0220461
:1015500001F0E9FE4FF032004FF032014FF0FA0394
:101560004FF09604DFF80CA001F0DDFE024BD3E94A
:1015700000BC03E0686B650004000020BBF5784FF9
:1015800000D130E04FF04B064FF03C074FF4784865
:1015900001F050FD4FF05F064FF03C074FF47848E4
:1015A00001F077FC4FF078064FF03C074FF4784895
:1015B00001F00AFD4FF096064FF03C074FF47848D3
:1015C00001F0A2FA4FF0AF064FF03C074FF4784815
:1015D00001F0C7FD4FF0C3064FF03C074FF47848C9
:1015E00001F0F0F92FE04FF04B064FF03C074FF6BB
:1015F000E07801F06BFB4FF064064FF03C074FF6CC
:10160000E07801F0C3FC4FF078064FF03C074FF64E
:10161000E07801F079FA4FF09B064FF03C074FF667
:10162000E07801F071FA4FF0B9064FF03C074FF641
:10163000E07801F096FD4FF0CD064FF03C074FF6F5
:10164000E07801F0BFF94FF04B064FF05A074FF02A
:10165000000801F034FD4FF05A064FF05A074FF0E2
:10166000000801F0AFF94FF073064FF05A074FF042
:10167000000801F0C9FB4FF0A0064FF05A074FF0E9
:101680001F0800F09BFF4FF04B064FF078074FF01C
:10169000000801F0FEFB4FF05A064FF078074FF0BC
:1016A000000801F06AFB4FF073064FF078074FF027
:1016B000000801F0A9FB4FF0A0064FF078074FF0AB
:1016C0001F0800F07BFF054801684FF001024FEA58
:1016D000023241EA02010180014803E00C0C0140A2
:1016E0000808014001684FF001024FEA022201EAB6
:1016F0000201002902D0FEF7E7BDFFE701684FF0C5
:1017000001024FEA422201EA02010029E4D0FEF779
:10171000BCBEBDE8FF9F2DE9FF5F4FF02A02514894
:101720000178002900D001E0BDE8FF9F00F1010031
:10173000A2F10102002A00D0F2E74FF0000A00F007
:1017400041FE4FF000004FF000014FF4A0734FF046
:10175000220401F0E8FD4FF032004FF032014FF06B
:10176000FA034FF0960440F2FF7A01F0DCFD4FF0EF
:101770004B064FF03C074FF0000801F045FB4FF0DF
:1017800062064FF03C074FF0000801F059FB4FF0A4
:1017900075064FF03C074FF0000801F07AFB4FF060
:1017A0009B064FF03C074FF0000801F010FA4FF095
:1017B000AF064FF03C074FF0000801F04DFA4FF034
:1017C000C1064FF03C074FF0000801F03CF94FF024
:1017D000D7064FF03C074FF0000801F05AFB4FF0DE
:1017E0004B064FF05A074FF0000801F068FC4FF02D
:1017F0005A064FF05A074FF0000801F0E3F84FF097
:1018000073064FF05A074FF0000801F0FDFA4FF051
:10181000A0064FF05A074FF01F0800F0CFFE4FF020
:101820004B064FF078074FF0000801F032FB4FF005
:101830005A064FF078074FF0000801F09EFA4FF07B
:1018400073064FF078074FF0000801F0DDFA4FF013
:10185000A0064FF078074FF01F0800F0AFFE0248D7
:1018600004E00000080000200808014001684FF073
:1018700001024FEA022201EA0201002902D0FEF72A
:1018800023BDFFE701684FF001024FEA422201EA5F
:1018900002010029E3D0FEF7F8BDBDE8FF9F2DE966
:1018A000FF5F00F068F900F0F0F800F078F800F061
:1018B00002F8BDE8FF9F2DE9FF5F014802E000004C
:1018C000040000200188B1F5784F02D14FF00206E4
:1018D00001E04FF00106014802E00000080000208E
:1018E0004FF003094FF0000A4A4652445244524412
:1018F0005244524452442C4810444FF000010178A5
:10190000B1420CD0BAF1030F00D005E0B9F1050FD8
:1019100043D009F10109E5E70AF1010AE4E700F122
:1019200005004FF000010178B1420CD0BAF1030F6D
:1019300000D005E0B9F1050F2FD009F10109D1E779
:101940000AF1010AD0E700F105004FF0000101782B
:10195000B1420CD0BAF1030F00D005E0B9F1050F88
:101960001BD009F10109BDE70AF1010ABCE700F14A
:1019700005004FF000010178B1420CD0BAF1030F1D
:1019800000D005E0B9F1050F07D009F10109A9E779
:101990000AF1010AA8E7FFF7CDFDBDE8FF9F2DE999
:1019A000FF5F024804E0000008000020040000205F
:1019B0000188B1F5784F02D14FF0020601E04FF0F7
:1019C0000106014802E00000080000204FF0000975
:1019D0004FF0000A4A465244524452445244524440
:1019E00052442C4810444FF000010178B1420CD011
:1019F000BAF1030F00D005E0B9F1020F43D009F1AD
:101A00000109E5E70AF1010AE4E700F107004FF0F8
:101A100000010178B1420CD0BAF1030F00D005E00B
:101A2000B9F1020F2FD009F10109D1E70AF1010A3A
:101A3000D0E700F107004FF000010178B1420CD06F
:101A4000BAF1030F00D005E0B9F1020F1BD009F184
:101A50000109BDE70AF1010ABCE700F107004FF0F8
:101A600000010178B1420CD0BAF1030F00D005E0BB
:101A7000B9F1020F07D009F10109A9E70AF1010A3A
:101A8000A8E7FFF757FDBDE8FF9F2DE9FF5F02487C
:101A900004E0000008000020040000200188B1F5E7
:101AA000784F02D14FF0020601E04FF001060148E5
:101AB00002E00000080000204FF000094FF0000A8B
:101AC00052464A444A444A444A444A444A442C48B6
:101AD00010444FF000010178B1420CD0BAF1020F6E
:101AE00000D005E0B9F1060F43D009F10109E5E79F
:101AF0000AF1010AE4E700F101004FF0000101786A
:101B0000B1420CD0BAF1020F00D005E0B9F1060FD6
:101B10002FD009F10109D1E70AF1010AD0E700F15C
:101B200001004FF000010178B1420CD0BAF1020F70
:101B300000D005E0B9F1060F1BD009F10109BDE79E
:101B40000AF1010ABCE700F101004FF00001017841
:101B5000B1420CD0BAF1020F00D005E0B9F1060F86
:101B600007D009F10109A9E70AF1010AA8E7FFF77F
:101B7000E1FCBDE8FF9F2DE9FF5F024804E00000A3
:101B800008000020040000200188B1F5784F02D140
:101B90004FF0020601E04FF00106014802E00000AC
:101BA000080000204FF000094FF0000A4A46524456
:101BB00052445244524452445244014802E000000C
:101BC0000800002010444FF000010178B1420CD011
:101BD000BAF1030F00D005E0B9F1050F43D009F1C8
:101BE0000109E1E70AF1010AE0E700F106004FF020
:101BF00000010178B1420CD0BAF1030F00D005E02A
:101C0000B9F1050F2FD009F10109CDE70AF1010A59
:101C1000CCE700F106004FF000010178B1420CD092
:101C2000BAF1030F00D005E0B9F1050F1BD009F19F
:101C30000109B9E70AF1010AB8E700F106004FF01F
:101C400000010178B1420CD0BAF1030F00D005E0D9
:101C5000B9F1050F07D009F10109A5E70AF1010A59
:101C6000A4E7FFF767FCBDE8FF9F2DE9FF5F4FF09A
:101C70003A00DD490A88824217D000F122008242F0
:101C800017D000F12200824217D000F122008242D8
:101C900017D000F12200824217D000F122008242C8
:101CA00017D000F12200824217D0D04800F01BF874
:101CB00017E0CF4800F017F813E0CE4800F013F813
:101CC0000FE0CD4800F00FF80BE0CC4800F00BF827
:101CD00007E0CB4800F007F803E0CA4800F003F83B
:101CE000FFE7BDE8FF9F2DE9FF5F4FF00606BE4B03
:101CF0001C884FF000020178914207D1914208BF41
:101D0000761E914208BF401C9642F4D1A0F101001A
:101D1000062E74D0052E0AD0042E19D0032E28D0FA
:101D2000022E37D0012E46D0002E55D067E000F0AD
:101D300081FAB54BD3E900BCBBF5784F00D003E086
:101D40004FF00104047002E04FF00205057054E00A
:101D500000F089FAAC4BD3E900BCBBF5784F00D05A
:101D600003E04FF00104047002E04FF0020505703B
:101D700043E000F09BFAA44BD3E900BCBBF5784FDD
:101D800000D003E04FF00104047002E04FF00205C0
:101D9000057032E000F0ADFA9B4BD3E900BCBBF517
:101DA000784F00D003E04FF00104047002E04FF0E0
:101DB0000205057021E000F0BFFA934BD3E900BCA7
:101DC000BBF5784F00D003E04FF00104047002E04F
:101DD0004FF00205057010E000F0D1FA8A4BD3E90C
:101DE00000BCBBF5784F00D003E04FF00104047055
:101DF00002E04FF002050570FFE700F002F8BDE8D1
:101E0000FF9F2DE9FF5F804BD3E900BCBBF5784F06
:101E100000D108E000F02CFB00F039F94FF6E07A31
:101E200000F062FB07E000F0E5FA00F06EF94FF613
:101E3000E07A00F059FBBDE8FF9F2DE9FF5F734892
:101E400001684FF001024FEA02326FEA020201EA32
:101E5000020101806E484FF0780101806D484FF01B
:101E6000050101806C4840F23D1101806B484FF044
:101E7000310101806A484FF08201018069484FF0CA
:101E8000BB01018068484FF00001018067484FF0B6
:101E90009A01018066484FF0D201018065484FF0F9
:101EA0001401018064484FF01401018063484FF031
:101EB0000001018062484FF00001018061484FF04D
:101EC0000001018060484FF0000101805F484FF041
:101ED000000101F5A02101F1810101605B4800F1E1
:101EE00004004FF0000101F5D01101F18101016002
:101EF00000F104004FF0000101F53C1101F18101F6
:101F0000016000F104004FF0000101F5880101F1CA
:101F10008101016000F104004FF0000101F5B20100
:101F200001F18101016000F104004FF0000101F5B1
:101F3000DC0101F18101016000F104004FF00001BA
:101F400001F5030101F18101016000F104004FF08E
:101F5000000101F5180101F18101016000F10400A7
:101F60004FF0000101F52D0101F18101016000F147
:101F700004004FF0000101F5420101F1810101600F
:101F800000F104004FF0000101F5570101F181015A
:101F9000016000F104004FF0000101F56C0101F156
:101FA0008101016000F104004FF0000101F5803172
:101FB00001F1807101F18101016000F104004FF035
:101FC000000101F5B01101F1807101F181010160A1
:101FD00000F104004FF0000101F52C1101F18071B6
:101FE00001F18101016033E00000002008000020C1
:101FF0000E000020140000201A0000202000002005
:10200000260000202C000020040000200C0C0140C1
:102010003400002036000020380000203C00002062
:102020003A0000203E0000204C000020400000202C
:10203000420000204400002046000020480000200C
:102040004E000020500000204A00002054000020D4
:1020500054484FF03A010180534A4FF02D0313804A
:10206000524C4FF47845C4E900564FF000004FF051
:102070002A064F49087001F10101A6F10106002E60
:10208000F8D14C484FF000010160BDE8FF9F2DE9F9
:10209000FF5F00F019FA4FF00A064FF005074FF402
:1020A000784800F0C7FF4FF01C064FF005074FF4CB
:1020B000784800F0EEFE4FF034064FF005074FF47D
:1020C000784800F081FF4FF050064FF005074FF4BD
:1020D000784800F099FE4FF062064FF005074FF484
:1020E000784800F02DFE4FF074064FF005074FF4CE
:1020F000784800F09FFF4FF085064FF005074FF43A
:10210000784800F05FFCBDE8FF9F2DE9FF5F00F01D
:10211000DBF94FF00A064FF005074FF6E07800F0C4
:10212000D5FD4FF021064FF005074FF6E07800F09F
:102130002DFF4FF034064FF005074FF6E07800F022
:10214000E3FC4FF050064FF005074FF6E07800F043
:102150005BFE4FF062064FF005074FF6E07800F0A7
:10216000EFFD4FF074064FF005074FF6E07800F0F2
:1021700061FF4FF085064FF005074FF6E07800F05D
:1021800021FCBDE8FF9F2DE9FF4F06480188B1F50E
:10219000837F25DA00F016F90D4605F1220505804A
:1021A0000AE00000000000200200002004000020DF
:1021B0000800002032000020114BD3E900BCBBF521
:1021C000784F00D006E000F053F94FF6E07A00F0C7
:1021D0008BF905E000F00EF94FF6E07A00F084F993
:1021E000BDE8FF8F2DE9FF4F064801883A291FDD22
:1021F00000F0E8F80D46A5F12205058004E0000096
:102200000400002000000020744BD3E900BCBBF5A3
:10221000784F00D006E000F02BF94FF6E07A00F09E
:1022200063F905E000F0E6F84FF6E07A00F05CF9BB
:10223000BDE8FF8F2DE9FF5F684BD3E900BC684A1A
:102240004FF05603BBF5784F00D005E0138000F047
:102250000FF9FFF71CFF04E0138000F0CBF8FFF745
:1022600054FFBDE8FF9F2DE9FF5F5C4BD3E900BC45
:10227000FFF7E0FF01F082F9594A4FF0560313804F
:1022800000F0A0F8564A4FF07003BBF5784F00D02D
:1022900005E0138000F0ECF8FFF7F9FE04E013808E
:1022A00000F0A8F8FFF731FFBDE8FF9F2DE9FF5FC1
:1022B0004A4BD3E900BCFFF7D6FF01F05FF9484A6B
:1022C0004FF07003138000F07DF8454A4FF08A0309
:1022D000BBF5784F00D005E0138000F0C9F8FFF798
:1022E000D6FE04E0138000F085F8FFF70EFFBDE88E
:1022F000FF9F2DE9FF5F394BD3E900BCFFF7D6FF05
:1023000001F03CF9364A4FF08A03138000F05AF886
:10231000334A4FF0A403BBF5784F00D005E013809B
:1023200000F0A6F8FFF7B3FE04E0138000F062F8B7
:10233000FFF7EBFEBDE8FF9F2DE9FF5F274BD3E9D9
:1023400000BCFFF7D6FF01F019F9254A4FF0A403AE
:10235000138000F037F8224A4FF0BE03BBF5784FE8
:1023600000D005E0138000F083F8FFF790FE04E052
:10237000138000F03FF8FFF7C8FEBDE8FF9F2DE98E
:10238000FF5F164BD3E900BCFFF7D6FF01F0F6F86C
:10239000134A4FF0BE03138000F014F8104A4FF0B8
:1023A000D803BBF5784F00D005E0138000F060F84B
:1023B000FFF76DFE04E0138000F01CF8FFF7A5FEA8
:1023C000BDE8FF9F2DE9FF47064801880D46044AF6
:1023D00013881E464FF0000A06E0000004000020AB
:1023E000020000200000002000F075FF00F07CF8E3
:1023F000BDE8FF872DE9FF4F064801880D46064AD4
:1024000013881E464FF000084FF6E07A034CA4F8FC
:1024100000A005E0000000200200002004000020D1
:1024200000F059FF2846A0F105003146A1F1020154
:10243000034603F10A030C4604F104044FF0000ABA
:1024400000F071FF2846A0F102003146A1F105011C
:10245000034603F104030C4604F10A044FF0000A9A
:1024600000F061FF094A4FF02D031380BDE8FF8F94
:102470002DE9FF4F064801880D46044A13881E4681
:102480004FF4784A034CA4F800A005E002000020B5
:10249000000000200400002000F01DFF2846A0F1ED
:1024A00004003146A1F10201034603F107030C4683
:1024B00004F104044FF0000A00F035FF0F4A4FF01A
:1024C0002D031380BDE8FF8F2DE9FF4F4FF0000073
:1024D0004FF000014FF09B034FF022044FF0000A31
:1024E00000F021FFBDE8FF8F2DE9FF470448018878
:1024F0000D46024A13881E4604E000000200002038
:102500000000002028464FF03A012B464FF04304CC
:1025100000F009FFA0F102004FF0410100F059FE68
:10252000A0F101004FF0400100F053FEA0F10100C6
:102530004FF03F0100F04DFE00F106004FF0410169
:1025400000F047FE00F101004FF0400100F041FEB5
:1025500000F101004FF03F0100F03BFEBDE8FF87B6
:102560001FB54FF02A0200F017FF02464FEA122271
:1025700000F028FF024600F025FF0A464FEA12222B
:1025800000F020FF0A4600F01DFF4FF02B0200F084
:1025900003FF1A464FEA122200F014FF1A4600F019
:1025A00011FF22464FEA122200F00CFF224600F0F3
:1025B00009FF4FF02C0200F0EFFE1FBD2DE9FF4593
:1025C00030463946334603F10E033C4604F1170406
:1025D000C24600F0A8FE304600F10300394601F182
:1025E0000401334603F10B033C4604F113044FF09E
:1025F000000A00F098FEBDE8FF852DE9FF45304652
:102600003946334603F104033C4604F11704C2463D
:1026100000F089FEBDE8FF852DE9FF4530463946CB
:10262000334603F10E033C4604F10404C24600F0B5
:102630007AFE304600F10A00394601F104013346C2
:1026400003F10E033C4604F10A04C24600F06BFE9F
:102650003046394601F10A01334603F10E033C4688
:1026600004F10E04C24600F05EFE3046394601F128
:102670000E01334603F104033C4604F11304C24641
:1026800000F051FE3046394601F11301334603F1A3
:102690000E033C4604F11704C24600F044FEBDE8B8
:1026A000FF852DE9FF4530463946334603F11003D7
:1026B0003C4604F10304C24600F035FE304600F10A
:1026C0000D003946334603F110033C4604F117046C
:1026D000C24600F028FE3046394601F10A01334671
:1026E00003F110033C4604F10D04C24600F01BFE4A
:1026F0003046394601F11401334603F110033C46DC
:1027000004F11704C24600F00EFEBDE8FF852DE976
:10271000FF4530463946334603F103033C4604F196
:102720000C04C24600F0FFFD3046394601F10A01B3
:10273000334603F110033C4604F10D04C24600F099
:10274000F2FD304600F10D003946334603F1100327
:102750003C4604F11704C24600F0E5FDBDE8FF85E4
:102760002DE9FF4530463946334603F110033C4618
:1027700004F10304C24600F0D6FD3046394601F1AB
:102780000401334603F103033C4604F10D04C24641
:1027900000F0C9FD3046394601F10E01334603F120
:1027A00010033C4604F11104C24600F0BCFD304663
:1027B00000F10D00394601F11201334603F1100317
:1027C0003C4604F11704C24600F0ADFD30463946E0
:1027D00001F11401334603F110033C4604F11704E0
:1027E000C24600F0A0FDBDE8FF852DE9FF4530465B
:1027F0003946334603F110033C4604F10304C24654
:1028000000F091FD3046394601F10401334603F1F1
:1028100003033C4604F11704C24600F084FD304631
:10282000394601F10E01334603F110033C4604F131
:102830001104C24600F077FD304600F10D00394624
:1028400001F11201334603F110033C4604F1170471
:10285000C24600F068FD3046394601F114013346A6
:1028600003F110033C4604F11704C24600F05BFD7F
:10287000BDE8FF852DE9FF4530463946334603F173
:1028800010033C4604F10304C24600F04CFD304600
:1028900000F10D00394601F10401334603F1100344
:1028A0003C4604F11704C24600F03DFDBDE8FF853B
:1028B0002DE9FF4530463946334603F110033C46C7
:1028C00004F10304C24600F02EFD3046394601F102
:1028D0000401334603F103033C4604F11704C246E6
:1028E00000F021FD3046394601F10E01334603F177
:1028F00010033C4604F11104C24600F014FD3046BA
:1029000000F10D00394601F10401334603F11003D3
:102910003C4604F11704C24600F005FD3046394636
:1029200001F11601334603F110033C4604F11B0488
:10293000C24600F0F8FCBDE8FF852DE9FF453046B2
:102940003946334603F110033C4604F10304C24602
:1029500000F0E9FC3046394601F10401334603F149
:1029600003033C4604F10D04C24600F0DCFC304693
:10297000394601F10E01334603F110033C4604F1E0
:102980001104C24600F0CFFC304600F10D0039467C
:1029900001F10401334603F110033C4604F117042E
:1029A000C24600F0C0FC3046394601F117013346FB
:1029B00003F110033C4604F11B04C24600F0B3FCD3
:1029C000BDE8FF852DE9FF4530463946334603F122
:1029D00004033C4604F11704C24600F0A4FC304650
:1029E000394600F10E00034603F104033C4604F1AE
:1029F0001704C24600F097FC4FF00A0530463946EE
:102A000000F1040000F0E5FBC24600F1010001F115
:102A1000010100F0DEFB01F1010100F0DAFB01F140
:102A2000010100F0D6FB01F1010100F0D2FB01F140
:102A3000010100F0CEFBA1F10301A5F10105002D7C
:102A4000E3DCBDE8FF852DE9FF45304639463346D6
:102A500003F104033C4604F11704C24600F063FC92
:102A60003046394600F10E00034603F104033C46AC
:102A700004F11704C24600F056FC4FF0050530463D
:102A80003946C24600F1040000F0A3FB00F101004A
:102A900001F1010100F09DFB01F1010100F099FB42
:102AA00001F1010100F095FB01F1010100F091FB42
:102AB00001F1010100F08DFBA1F10301A5F1010578
:102AC000002DE3DC4FF0050501F1030100F10100E9
:102AD000A1F1010100F07DFBA1F1010100F079FB02
:102AE000A1F1010100F075FBA1F1010100F071FB02
:102AF000A1F1010100F06DFB01F10301A5F1010558
:102B0000002DE3DCBDE8FF852DE9FF453046394661
:102B1000334603F104033C4604F11704C24600F0B7
:102B200002FC3046394600F10E00034603F104036F
:102B30003C4604F11704C24600F0F5FB4FF00505D2
:102B400030463946C24601F1170100F1040000F099
:102B500040FB00F10100A1F1010100F03AFBA1F1FD
:102B6000010100F036FBA1F1010100F032FBA1F1FF
:102B7000010100F02EFBA1F1010100F02AFB01F19F
:102B80000301A5F10105002DE3DC4FF00505A1F1DE
:102B9000030100F1010001F1010100F01AFB01F154
:102BA000010100F016FB01F1010100F012FB01F13F
:102BB000010100F00EFB01F1010100F00AFBA1F19F
:102BC0000301A5F10105002DE3DCBDE8FF852DE93A
:102BD000FF4530463946334603F10E033C4604F1C7
:102BE0000304C24600F09FFB30463946334603F1EA
:102BF00003033C4604F11704C24600F094FB304640
:102C0000394601F11401334603F10E033C4604F149
:102C10001704C24600F087FB304600F10A0039462F
:102C200001F10C01334603F10E033C4604F1170495
:102C3000C24600F078FB304600F10800394601F149
:102C40000C01334603F110033C4604F10E04C24666
:102C500000F069FBBDE8FF852DE9FF4530463946A8
:102C600001F10301334603F103033C4604F1170469
:102C7000C24600F058FB304600F10900394601F128
:102C80000301334603F10C033C4604F11704C2462A
:102C900000F049FB3046394601F10A01334603F1A1
:102CA00009033C4604F10E04C24600F03CFB3046EA
:102CB00000F103003946334603F109033C4604F1B1
:102CC0000304C24600F02FFBBDE8FF852DE9FF4558
:102CD00030463946334603F104033C4604F1090407
:102CE000C24600F020FB304600F10E003946334664
:102CF00003F112033C4604F10904C24600F013FB41
:102D0000304600F10400394601F10901334603F170
:102D10000E033C4604F10D04C24600F004FB3046AD
:102D200000F10700394601F10D01334603F10B03B1
:102D30003C4604F11704C24600F0F5FABDE8FF85F1
:102D40002DE9FF4530463946334603F10E033C4634
:102D500004F11704C24600F0E6FA304600F1040020
:102D60003946334603F10A033C4604F113044FF09D
:102D7000000A00F0D8FABDE8FF852DE9FF4530468E
:102D80003946334603F105033C4604F10804C246C4
:102D900000F0C9FA304600F10A003946334603F123
:102DA0000F033C4604F10804C24600F0BCFA30466A
:102DB00000F10500394601F10801334603F10A0329
:102DC0003C4604F10D04C24600F0ADFA30463946E7
:102DD00001F10D01334603F105033C4604F11704EC
:102DE000C24600F0A0FA304600F10A00394601F16F
:102DF0000D01334603F10F033C4604F11704C246AC
:102E000000F091FABDE8FF852DE9FF4530463946CF
:102E1000334603F10E033C4604F10504C24600F0BC
:102E200082FA304600F105003946334603F10903C2
:102E30003C4604F11704C24600F075FABDE8FF8570
:102E40002DE9FF4530463946334603F10A033C4637
:102E500004F10504C24600F066FA3046394601F135
:102E60001201334603F10A033C4604F11704C2463B
:102E700000F059FA304600F103003946334603F1B9
:102E800007033C4604F11704C24600F04CFABDE8C3
:102E9000FF852DE9FF4530463946334603F11003DF
:102EA0003C4604F10304C24600F03DFA3046394680
:102EB000334603F103033C4604F11704C24600F015
:102EC00032FA3046394601F10A01334603F10C0368
:102ED0003C4604F10D04C24600F025FA304639465E
:102EE00001F11401334603F110033C4604F11704C9
:102EF000C24600F018FABDE8FF852DE9FF453046CF
:102F00003946334603F10A033C4604F10504C24640
:102F100000F009FA3046A0F10300394601F106013C
:102F20003346A3F101033C4604F10A04C24600F013
:102F3000FAF93046394601F10A01334603F1080334
:102F40003C4604F10F04C24600F0EDF9304600F1B2
:102F50000800394601F10F01334603F10A033C46EC
:102F600004F11304C24600F0DEF93046A0F103007C
:102F7000394601F11301334603F108033C4604F1DD
:102F80001704C24600F0CFF9BDE8FF852DE9FF45E3
:102F900030463946334603F104033C4604F1170436
:102FA000C24600F0C0F9304600F10400394601F194
:102FB0001301334603F10E033C4604F11704C246E5
:102FC00000F0B1F9BDE8FF852DE9FF4530463946EF
:102FD000334603F10A033C4604F10504C24600F0FF
:102FE000A2F93046A0F10400394633463C4604F1CC
:102FF0001704C24600F097F93046394601F1120134
:10300000334603F10A033C4604F11704C24600F0BC
:103010008AF9304600F10A00394601F105013346CC
:1030200003F10E033C4604F11204C24600F07BF9A2
:10303000BDE8FF852DE9FF4530463946334603F1AB
:103040000A033C4604F10504C24600F06CF9304620
:103050003946334603F104033C4604F11704C246E3
:1030600000F061F9304600F10A00394601F105012E
:10307000334603F10E033C4604F10B04C24600F054
:1030800052F93046394601F10B01334603F10A0388
:103090003C4604F11004C24600F045F9304600F108
:1030A0000800394601F11001334603F10C033C4698
:1030B00004F11704C24600F036F9BDE8FF852DE99A
:1030C000FF4530463946334603F10A033C4604F1D6
:1030D0000504C24600F027F93046A0F10400394645
:1030E00001F1050133463C4604F11204C24600F0EA
:1030F0001AF93046394601F11201334603F10A0349
:103100003C4604F11704C24600F00DF9BDE8FF8506
:103110002DE9FF4530463946334603F103033C466B
:1031200004F11704C24600F0FEF8304600F1090031
:103130003946334603F10C033C4604F11704C246FA
:1031400000F0F1F83046394601F10901334603F148
:1031500009033C4604F10D04C24600F0E4F8BDE862
:10316000FF852DE9FF4530463946334603F10A0312
:103170003C4604F10504C24600F0D5F83046A0F103
:103180000400394601F1050133463C4604F11204BE
:10319000C24600F0C8F83046394601F11201334604
:1031A00003F10A033C4604F11704C24600F0BBF8E1
:1031B000304600F10A00394601F10501334603F1BA
:1031C0000E033C4604F11204C24600F0ACF8BDE820
:1031D000FF852DE93F44FA4B1C684FF001054FEA8B
:1031E00085156FEA050504EA05041C600B4600F12D
:1031F000010103F10104FFF7B3F94FF02C0200F0D5
:10320000CBF852464FEA122200F0DCF8524600F0AA
:10321000D9F8BDE83F842DE9FF472846A0F10A0010
:103220003146A1F106012B4603F10A03344604F1AD
:10323000060400F078F82846A0F106003146A1F116
:103240000A012B4603F10603344604F10A0400F098
:103250006AF82846A0F108003146A1F108012B4682
:1032600003F10803344604F1080400F05CF8B9F1F6
:10327000010F00D10FE02846A0F104003146A1F172
:103280000201034603F107030C4604F10404C2469D
:1032900000F049F81DE02846A0F108003146A1F1F0
:1032A00001012B4603F10803344604F10104C24630
:1032B00000F039F82846A0F101003146A1F10801DB
:1032C0002B4603F10103344604F1080400F02BF807
:1032D000FFE7BDE8FF872DE9FF4728460A3831465A
:1032E000891F2B4603F10A03344604F1060400F05B
:1032F0001AF82846801F31460A392B4603F1060387
:10330000344604F10A0400F00EF828460838314625
:1033100008392B4603F10803344604F1080400F091
:1033200002F8BDE8FF872DE9FF5F1FB402B408B4BF
:1033300002BC08BCFFF714F91FBC1B1A03F1010300
:10334000641A04F1010403FB04F34FF02C0200F0B3
:1033500023F852464FEA122200F034F8524600F0A9
:1033600031F85B1E002BF4DCBDE8FF9F0FB59449DC
:1033700008684FF001034FEA03236FEA030300EAF2
:10338000030008808F490A708D4908684FF00103D7
:1033900040EA032008800FBD0FB5894908684FF047
:1033A000010340EA43200880854908684FF0010383
:1033B0004FEAC3136FEA030300EA03000880FFF734
:1033C000D5FF0FBD0FB57E4908684FF0010340EAF5
:1033D000432008807A4908684FF0010340EAC3108F
:1033E0000880FFF7C3FF0FBD2DE9FF5F7648016836
:1033F0004FF0010241EA02010160744801684FF098
:10340000010241EA426101606F4801684FF0010228
:1034100041EA820101606C4801684FF0010241EA13
:10342000C2010160684801684FF0010241EA0211DF
:1034300001606748016801F0000141F0333101602B
:103440006448016801F0000141F088310160624880
:103450004FF03331016061484FF44C1141F03301BA
:1034600041F04C5141F40841016055484FF00001D2
:1034700001605B48016801F0000141F088310160A2
:1034800000F002F8BDE8FF9F0FB54D4908684FF006
:10349000010340EAC330088000F065F84849086835
:1034A0004FF001034FEAC3336FEA030300EA03005E
:1034B000088000F063F8424908684FF0010340EAD1
:1034C000C330088000F04FF83D4908684FF0010311
:1034D00040EA831008603A4908684FF0010340EA67
:1034E00003200880364908684FF0010340EA432072
:1034F0000880334908684FF001034FEA83136FEAED
:10350000030300EA030008604FF0C502FFF744FF21
:103510004FF07F02FFF756FF4FF00002FFF752FF18
:103520004FF03602FFF738FF4FF06002FFF74AFF17
:103530004FF03A02FFF730FF4FF05502FFF742FF1E
:103540004FF01102FFF728FF00F00DF84FF02902AD
:10355000FFF722FF4FF02002FFF71EFF4FF02C0273
:10356000FFF71AFF0FBD2DE90041DFF87880B8F1B1
:103570000108B8F1000FFADABDE800812DE9004139
:10358000DFF86080B8F16408B8F1000FFADABDE83E
:1035900000812DE90041DFF84C80B8F10508B8F151
:1035A000000FFADABDE800812DE90041DFF8348030
:1035B000B8F10A08B8F1000FFADABDE8008100009E
:1035C0000C0C01400C08014018100240040001409E
:1035D0000008014004080140000C0140040C0140B7
:1035E00004100140046056002DE9FF5F01F056FB16
:1035F0004FF000004FF000014FF4A0734FF0F004C3
:103600004FF6FF7A02F066FC4FF014004FF0140101
:103610004FF496734FF0DC04DFF8F0A002F05AFC90
:103620004FF055064FF01E074FF6FF7802F043F8B3
:103630004FF06C064FF01E074FF6FF7802F000FACD
:103640004FF081064FF01E074FF6FF7802F075FA33
:103650004FF093064FF01E074FF6FF7802F006FB7F
:103660004FF0A3064FF01E074FF6FF7802F050FB15
:103670004FF0B4064FF01E074FF6FF7801F0BAFF87
:103680004FF0CB064FF01E074FF6FF7802F0D8F947
:103690004FF064064FF03C074FF6FF7802F0E6FA71
:1036A0004FF073064FF03C074FF6FF7802F007FB30
:1036B0004FF086064FF03C074FF6FF7802F028FBEC
:1036C0004FF09B064FF03C074FF6FF7802F020FBCF
:1036D0004FF0AE064FF03C074FF6FF7802F0E4F9EA
:1036E0004FF0BC064FF03C074FF6FF7802F0A8F908
:1036F00000F0D2FD00F060FD00F096FD04484FF0B0
:10370000010AA0F800A0034806E000007A786E00E5
:10371000C2000020080C014001684FF001024FEA8E
:10372000822201EA0201002908D000F045FD00F0E4
:103730007BFD03484FF0010AA0F800A0014803E018
:10374000C20000200810014001684FF001024FEA5A
:10375000823201EA0201002908D000F09DFD00F04C
:10376000F3FC03484FF0020AA0F800A0014803E070
:10377000C20000200808014001684FF001024FEA32
:10378000422201EA02010029BDD021480188022914
:1037900000D001E000F0EBFB1D480188012900D0BA
:1037A00001E000F005F802F0D6FCACE7BDE8FF9FB1
:1037B00001F074FA4FF000004FF000014FF4A073D5
:1037C0004FF0F0044FF0000A02F084FB4FF00000CD
:1037D0004FF02A014FF4A0734FF02A044FF4FC6A13
:1037E00002F078FB4FF000004FF0BB014FF4A073E4
:1037F0004FF0BE044FF61F0A02F06CFB4FF0780644
:10380000044806804FF0E1074FF6E07804E000003E
:10381000C2000020D200002000F045FB4FF6FF7AE6
:1038200000F0ADFA4FF00A064FF005074FF6E078CA
:1038300002F03AF94FF01C064FF005074FF6E0781A
:1038400002F014FA4FF02E064FF005074FF6E0781D
:1038500002F05EFA4FF040064FF005074FF6E078B1
:1038600002F0BFF94FF054064FF005074FF6E0782D
:1038700002F0E6F84FF069004FF00A014FF06E03D6
:103880004FF00F044FF6E07A02F024FB4FF069008E
:103890004FF014014FF06E034FF019044FF6E07A29
:1038A00002F018FB4FF073064FF005074FF6E07873
:1038B00001F0B6FD4FF085064FF005074FF6E078B2
:1038C00001F0DCFD4FF097064FF005074FF6E0786A
:1038D00001F0C5FD4FF0C8064FF005074FF6E07840
:1038E00002F0AEF84FF0DC064FF005074FF6E07837
:1038F00002F01AF84FF0F1064FF005074FF6E078A6
:1039000002F075F84FF480764FF005074FF6E07837
:1039100002F051F840F213104FF00A014FF48C738B
:103920004FF00F044FF6E07A02F0D4FA40F2131091
:103930004FF014014FF48C734FF019044FF6E07AF6
:1039400002F0C8FA4FF48E764FF005074FF01F08CB
:1039500001F066FD0748B0F800C0074807884FF43B
:10396000784801F063F94FF0000A4FF00001034876
:10397000016805E0D4000020DA000020080C0140B6
:103980004FF001024FEAC22201EA0201002901D0F0
:1039900000F0CBFA4FF000010148016802E000009E
:1039A000080C01404FF001024FEA822201EA0201B5
:1039B000002901D000F099FA0148016802E00000F6
:1039C000080C01404FF001024FEA022201EA020115
:1039D000002900D0FFE74FF000004FF0BB014FF48B
:1039E000A0734FF0BE044FF61F0A02F073FA00F006
:1039F000E6F900F032F94FF4784801F017F94FF684
:103A0000FF7A00F0BCF9014802E00000D00000207D
:103A10000688042E4BD006F10106068000E071E016
:103A20004FF00001004801E0C40000200188044874
:103A30004FF0000202884FF00003024804E000004B
:103A4000C6000020D2000020038801F10A0199423B
:103A500024DD4FF0000403F16703A1F11401994242
:103A60001FDC4FF0000545EA0407014802E00000B2
:103A7000C60000204FF0000202884FF000064FF011
:103A8000E106A6F11906B2420EDA4FF0000808EA84
:103A90000708B8F1010F3CD0C1E708E04FF001047E
:103AA000D9E74FF00105DEE74FF00108EFE74FF0EF
:103AB000000606800CF1050C004801E0DA00002049
:103AC0000788BB460BF15F0BBBF1BE0F21DA014843
:103AD00002E00000DA000020078801F075F807F125
:103AE00001070780004801E0D800002000F0A3F89B
:103AF000B0F800B00BF1010BA0F800B04FF478481B
:103B000001F094F802F027FB02F025FB02F023FB02
:103B10002BE74FF032004FF032014FF0FA034FF035
:103B200096044FF6FF7A02F0D5F94FF04B064FF0AE
:103B30003C074FF0000801F0A0FE4FF064064FF084
:103B40003C074FF0000802F0E3F84FF078064FF022
:103B50003C074FF0000801F0CAFE4FF09B064FF003
:103B60003C074FF0000801F0E8FF4FF0AF064FF0C0
:103B70003C074FF0000802F0CBF84FF0C3064FF0BF
:103B80003C074FF0000801F08FFF4FF0D2064FF0D6
:103B90003C074FF0000801F00EFF4FF04B064FF0CE
:103BA0005A074FF0000802F061F84FF05A064FF044
:103BB0005A074FF0000801F0DCFC4FF073064FF09D
:103BC0005A074FF0000801F0F6FE4FF0A0064FF044
:103BD0005A074FF01F0801F023FC4FF04B064FF03F
:103BE00078074FF0000801F02BFF4FF05A064FF016
:103BF00078074FF0000801F097FE4FF073064FF082
:103C000078074FF0000801F0D6FE4FF0A0064FF005
:103C100078074FF01F0802F07BF80148016801E0C7
:103C2000080C01404FF001024FEA422201EA020172
:103C30000029F2D0BCE52DE9FF5F0A484FF00001F2
:103C4000382908DC07480844026802F101020260D2
:103C500001F10401F4E7BDE8FF9F2DE9FF5F014892
:103C600002E00000E00000204FF00001382978D089
:103C7000004801E0E0000020084402684FF000091D
:103C800009F17F4909F57F0902EA09094FEA194953
:103C9000004B01E0C40000201C884C4517DA01F1FC
:103CA0000401E3E7004D01E0C60000202E88014832
:103CB00002E00000E0000020084402684FF6FF7AAE
:103CC00002EA0A0A0AF1060A564507DD46E009F14A
:103CD00014094C45E6DD01F10401C7E7004801E0A5
:103CE000CE00002002884FF0010202800148B0F8A7
:103CF00000C001E0C80000204FF0140CA0F800C084
:103D000001480844026801E0E00000204FF000078D
:103D100007F17F4707F57F0702EA07074FEA1747D2
:103D20004FF0000B07F1110B01480844026801E055
:103D3000E00000204FF6FF7802EA08084FF0000C80
:103D400008F1060C00F00FF801480844026801E091
:103D5000E0000020A2F10A02026002E001F1040189
:103D600084E7BDE8FF9F2DE9FF5F384641465B468B
:103D700064464FF0000A02F0ADF8BDE8FF9F2DE960
:103D8000FF5FC7480688C74807883046394633462C
:103D900003F10D033C4604F1080402F09BF83046A1
:103DA00000F102003946A1F10301334603F10A0391
:103DB0003C4604F10B0402F08DF8BDE8FF9F2DE9AD
:103DC000FF5FB7480688B74807884FF0000AFFF73B
:103DD000D6FFB548B0F80080B448B0F80090B448B9
:103DE0000488B4480588002C00D00AE040F2311C59
:103DF000664501DA46440DE04FF00104A6EB0806E3
:103E000008E00F2E02DDA6EB080603E04FF00004E9
:103E10004644FFE7A2480680A5480480A648D0F89B
:103E200000A00AF11E0B0AF1320C5E4502DA4FF0D7
:103E3000000B01E04FF0010B664502DD4FF0000C76
:103E400001E04FF0010C0CEA0B0BBBF1010F18D095
:103E5000002D00D00CE04FF02A0000F10A0087424C
:103E600002DDA7EB090714E04FF001054F4410E015
:103E7000CE2F01DC4F440CE04FF00005A7EB090703
:103E800007E089484FF00008A0F8008089484FF00B
:103E900000054FF6FF7A8348078086480580FFF7C4
:103EA0006EFFBDE8FF9F2DE9FF45834806884FF070
:103EB000E10730463946334603F150033C4604F1EE
:103EC0000A04C24602F006F83046A0F10500394661
:103ED00001F10201334603F155033C4604F10704A6
:103EE000C24601F0F7FFBDE8FF852DE9FF457248A6
:103EF0000688052E17DD4FF0E107304600F12D0052
:103F00003946334603F155033C4604F10A044FF0A9
:103F1000000A01F0DFFFA6F12806674806804FF689
:103F2000E078FFF7C0FFBDE8FF852DE9FF45624857
:103F300006884FF0E60C664517DA4FF0E107304689
:103F4000A0F105003946334603F123033C4604F152
:103F50000A044FF0000A01F0BDFF06F1280656489A
:103F600006804FF6E078FFF79EFFBDE8FF852DE95C
:103F7000FF5F00F093FE4FF000004FF000014FF4A0
:103F8000A0734FF0F0044FF0000A01F0A3FF4FF0D0
:103F900022004FF046014FF48F734FF0F2044FF0C0
:103FA0001F0A01F097FF4FF005004FF0E60140F2C5
:103FB0003B134FF0F0044FF01F0A01F08BFF4FF05E
:103FC0000A004FF0E6014FF49B734FF0E9044FF005
:103FD000000A01F07FFF4FF056064FF0000A4FF045
:103FE00007074FF006084FF03A0501F04BFF05F1C7
:103FF00022057F1E002FF8DC06F11A06B8F1010831
:104000004FF00707B8F1000FEDDC00F079FF01F089
:1040100061F94FF6E07A01F099F94FF0C8064FF0D8
:1040200005074FF6E07801F00BFD4FF0DC064FF08E
:1040300005074FF6E07801F077FC4FF0F1064FF0FE
:1040400005074FF6E07801F0D2FC4FF480764FF090
:1040500005074FF6E07801F0AEFC40F213104FF088
:104060000A014FF48C734FF00F044FF6E07A01F021
:1040700031FF40F213104FF014014FF48C734FF0E6
:1040800019044FF6E07A01F025FF4FF48E764FF0D9
:1040900005074FF01F0801F0C3F9084810E00000C1
:1040A000C4000020C6000020C8000020CA00002074
:1040B000CC000020CE000020D200002008080140E3
:1040C00001684FF001024FEA022201EA02010029D1
:1040D00001D0FFF789BA00F0BDFA00F0F9F9014804
:1040E00002E00000080C014001684FF001024FEAB5
:1040F000C22201EA0201002901D000F07DFF01483F
:1041000002E00000080C014001684FF001024FEA94
:10411000822201EA0201002901D000F095FF014846
:1041200002E000000810014001684FF001024FEA70
:10413000823201EA0201002901D000F070FC01F096
:10414000FFFFAAE7BDE8FF9F2DE9FF454FF05500AF
:104150004FF0A0014FF0D5034FF0C8044FF0000A14
:1041600001F0B8FE4FF064064FF0AA074FF478480C
:1041700001F004FB4FF077064FF0AA074FF47848A0
:1041800001F041FB4FF088064FF0AA074FF4784842
:1041900001F030FA4FF09F064FF0AA074FF478482D
:1041A00001F04EFC4FF0BE064FF0AA074FF47848DE
:1041B00001F064F9BDE8FF852DE9FF454FF055009A
:1041C0004FF0A0014FF0D5034FF0C8044FF6FF7A2F
:1041D00001F080FE4FF064064FF0AA074FF0000890
:1041E00001F0CCFA4FF077064FF0AA074FF0000825
:1041F00001F009FB4FF088064FF0AA074FF00008C6
:1042000001F0F8F94FF09F064FF0AA074FF00008B1
:1042100001F016FC4FF0BE064FF0AA074FF0000861
:1042200001F02CF9BDE8FF852DE9FF454FF0550061
:104230004FF064014FF0D5034FF08C044FF0000AAB
:1042400001F048FE4FF064064FF06E074FF47848D7
:1042500001F094FA4FF077064FF06E074FF478486C
:1042600001F0D1FA4FF088064FF06E074FF478480E
:1042700001F0C0F94FF09F064FF06E074FF47848F9
:1042800001F0DEFB4FF0BE064FF06E074FF47848AA
:1042900001F0E5F8BDE8FF852DE9FF454FF0550039
:1042A0004FF064014FF0D5034FF08C044FF6FF7AC6
:1042B00001F010FE4FF064064FF06E074FF000085B
:1042C00001F05CFA4FF077064FF06E074FF00008F0
:1042D00001F099FA4FF088064FF06E074FF0000892
:1042E00001F088F94FF09F064FF06E074FF000087D
:1042F00001F0A6FB4FF0BE064FF06E074FF000082E
:1043000001F0ADF8BDE8FF852DE9FF5F4FF0000A31
:1043100000F08AFF4FF000004FF000014FF4A0734F
:104320004FF0220401F0D6FD4FF032004FF0320181
:104330004FF0FA034FF0960440F2FF7A01F0CAFD05
:10434000014BD3E900BC01E094000020BBF5784F9D
:1043500000D130E04FF04B064FF03C074FF4784867
:1043600001F03FFC4FF05F064FF03C074FF47848F8
:1043700001F066FB4FF078064FF03C074FF47848A9
:1043800001F0F9FB4FF096064FF03C074FF47848E8
:1043900001F091F94FF0AF064FF03C074FF4784829
:1043A00001F0B6FC4FF0C3064FF03C074FF47848DD
:1043B00001F0DFF82FE04FF04B064FF03C074FF6CF
:1043C000E07801F05AFA4FF064064FF03C074FF6E0
:1043D000E07801F0B2FB4FF078064FF03C074FF663
:1043E000E07801F068F94FF09B064FF03C074FF67C
:1043F000E07801F060F94FF0B9064FF03C074FF656
:10440000E07801F085FC4FF0CD064FF03C074FF609
:10441000E07801F0AEF84FF04B064FF05A074FF03E
:10442000000801F023FC4FF05A064FF05A074FF0F6
:10443000000801F09EF84FF073064FF05A074FF056
:10444000000801F0B8FA4FF0A0064FF05A074FF0FD
:104450001F0800F0E5FF4FF04B064FF078074FF0D4
:10446000000801F0EDFA4FF05A064FF078074FF0D0
:10447000000801F059FA4FF073064FF078074FF03B
:10448000000801F098FA4FF0A0064FF078074FF0BF
:104490001F0800F0C5FF014802E0000008080140C5
:1044A00001684FF001024FEA022201EA02010029ED
:1044B00002D0FFF799B8FFE701684FF001024FEA19
:1044C000422201EA02010029E5D050E5BDE8FF9F44
:1044D0002DE9FF5F4FF02A0250480178002900D0F3
:1044E00001E0BDE8FF9F00F10100A2F10102002AF6
:1044F00000D0F2E74FF0000A00F096FE4FF0000007
:104500004FF000014FF4A0734FF0220401F0E2FCE1
:104510004FF032004FF032014FF0FA034FF09604A3
:1045200040F2FF7A01F0D6FC4FF04B064FF03C070B
:104530004FF0000801F03FFA4FF062064FF03C07E1
:104540004FF0000801F053FA4FF075064FF03C07AA
:104550004FF0000801F074FA4FF09B064FF03C0753
:104560004FF0000801F00AF94FF0AF064FF03C079A
:104570004FF0000801F047F94FF0C1064FF03C073B
:104580004FF0000801F036F84FF0D7064FF03C0727
:104590004FF0000801F054FA4FF04B064FF05A0765
:1045A0004FF0000801F062FB4FF05A064FF05A0737
:1045B0004FF0000800F0DDFF4FF073064FF05A0790
:1045C0004FF0000801F0F7F94FF0A0064FF05A073E
:1045D0004FF01F0800F024FF4FF04B064FF0780714
:1045E0004FF0000801F02CFA4FF05A064FF0780710
:1045F0004FF0000801F098F94FF073064FF078077C
:104600004FF0000801F0D7F94FF0A0064FF07807FF
:104610004FF01F0800F004FF014803E0980000205D
:104620000808014001684FF001024FEA022201EA46
:104630000201002902D0FEF7D7BFFFE701684FF063
:1046400001024FEA422201EA02010029E4D08EE48D
:10465000BDE8FF9F2DE9FF5F00F067F900F0EFF87C
:1046600000F077F800F002F8BDE8FF9F2DE9FF5F4A
:10467000004801E0940000200188B1F5784F02D194
:104680004FF0020601E04FF00106014802E0000091
:10469000980000204FF003094FF0000A4A465244A8
:1046A000524452445244524452442C4810444FF015
:1046B00000010178B1420CD0BAF1030F00D005E03F
:1046C000B9F1050F43D009F10109E5E70AF1010A43
:1046D000E4E700F105004FF000010178B1420CD091
:1046E000BAF1030F00D005E0B9F1050F2FD009F1A1
:1046F0000109D1E70AF1010AD0E700F105004FF006
:1047000000010178B1420CD0BAF1030F00D005E0EE
:10471000B9F1050F1BD009F10109BDE70AF1010A42
:10472000BCE700F105004FF000010178B1420CD068
:10473000BAF1030F00D005E0B9F1050F07D009F178
:104740000109A9E70AF1010AA8E7FFF7DDFDBDE8C5
:10475000FF9F2DE9FF5F024804E000009800002061
:10476000940000200188B1F5784F02D14FF0020685
:1047700001E04FF00106014802E00000980000202F
:104780004FF000094FF0000A4A4652445244524446
:104790005244524452442C4810444FF000010178D6
:1047A000B1420CD0BAF1030F00D005E0B9F1020F0D
:1047B00043D009F10109E5E70AF1010AE4E700F154
:1047C00007004FF000010178B1420CD0BAF1030F9D
:1047D00000D005E0B9F1020F2FD009F10109D1E7AE
:1047E0000AF1010AD0E700F107004FF0000101785B
:1047F000B1420CD0BAF1030F00D005E0B9F1020FBD
:104800001BD009F10109BDE70AF1010ABCE700F17B
:1048100007004FF000010178B1420CD0BAF1030F4C
:1048200000D005E0B9F1020F07D009F10109A9E7AD
:104830000AF1010AA8E7FFF767FDBDE8FF9F2DE930
:10484000FF5F024804E00000980000209400002070
:104850000188B1F5784F02D14FF0020601E04FF028
:104860000106014802E00000980000204FF0000916
:104870004FF0000A52464A444A444A444A444A4491
:104880004A442C4810444FF000010178B1420CD04A
:10489000BAF1020F00D005E0B9F1060F43D009F1DB
:1048A0000109E5E70AF1010AE4E700F101004FF030
:1048B00000010178B1420CD0BAF1020F00D005E03E
:1048C000B9F1060F2FD009F10109D1E70AF1010A68
:1048D000D0E700F101004FF000010178B1420CD0A7
:1048E000BAF1020F00D005E0B9F1060F1BD009F1B3
:1048F0000109BDE70AF1010ABCE700F101004FF030
:1049000000010178B1420CD0BAF1020F00D005E0ED
:10491000B9F1060F07D009F10109A9E70AF1010A67
:10492000A8E7FFF7F1FCBDE8FF9F2DE9FF5F024814
:1049300004E0000098000020940000200188B1F5F8
:10494000784F02D14FF0020601E04FF00106014816
:1049500002E00000980000204FF000094FF0000A2C
:104960004A465244524452445244524452440148EA
:1049700002E000009800002010444FF00001017890
:10498000B1420CD0BAF1030F00D005E0B9F1050F28
:1049900043D009F10109E1E70AF1010AE0E700F17A
:1049A00006004FF000010178B1420CD0BAF1030FBC
:1049B00000D005E0B9F1050F2FD009F10109CDE7CD
:1049C0000AF1010ACCE700F106004FF0000101787E
:1049D000B1420CD0BAF1030F00D005E0B9F1050FD8
:1049E0001BD009F10109B9E70AF1010AB8E700F1A2
:1049F00006004FF000010178B1420CD0BAF1030F6C
:104A000000D005E0B9F1050F07D009F10109A5E7CC
:104A10000AF1010AA4E7FFF777FCBDE8FF9F2DE943
:104A2000FF5F4FF03A00014902E0000090000020D3
:104A30000A88824217D000F12200824217D000F18A
:104A40002200824217D000F12200824217D000F1EA
:104A50002200824217D000F12200824217D000F1DA
:104A60002200824217D0FE4800F01BF817E0FD48F4
:104A700000F017F813E0FC4800F013F80FE0FB48D3
:104A800000F00FF80BE0FA4800F00BF807E0F948E7
:104A900000F007F803E0F84800F003F8FFE7BDE88E
:104AA000FF9F2DE9FF5F4FF00606F44B1C884FF087
:104AB00000020178914207D1914208BF761E9142CF
:104AC00008BF401C9642F4D1A0F10100062E79D017
:104AD000052E0AD0042E1AD0032E2AD0022E3AD048
:104AE000012E4AD0002E5AD06CE000F0D5FAE44BEB
:104AF000D3E900BCBBF5784F00D003E04FF00104D0
:104B0000047002E04FF002050570FFF783B900F072
:104B1000DCFADB4BD3E900BCBBF5784F00D003E0F7
:104B20004FF00104047002E04FF002050570FFF73A
:104B300071B900F0EDFAD24BD3E900BCBBF5784F68
:104B400000D003E04FF00104047002E04FF00205D2
:104B50000570FFF75FB900F0FEFAC94BD3E900BC5E
:104B6000BBF5784F00D003E04FF00104047002E081
:104B70004FF002050570FFF74DB900F00FFBC04B79
:104B8000D3E900BCBBF5784F00D003E04FF001043F
:104B9000047002E04FF002050570FFF73BB900F02A
:104BA00020FBB74BD3E900BCBBF5784F00D003E046
:104BB0004FF00104047002E04FF002050570FFE7BA
:104BC00000F082F9BDE8FF9F2DE9FF5F4FF0000084
:104BD0004FF02F014FF4A0734FF0BB044FF0000AC9
:104BE00001F078F9BDE8FF9F2DE9FF5FA548B0F817
:104BF00000C0A5480688A548078865462846394666
:104C000005F111052B463C4604F10604C24601F0AD
:104C100061F905F10405B542F0DB07F10A079C488C
:104C2000B0F800B05F45E8DBBDE8FF9F2DE9FF5F0E
:104C30009448B0F800C09448068865464FF00008D4
:104C4000924807889048068805F11105B54223DA95
:104C5000A5F111058F48404402684FF6FF7902EA3A
:104C6000090928463946034603F111030C4604F1AD
:104C7000060409F107094C4509DAB8F1380F06DCDA
:104C80004FF4784A01F026F907F10A07E2E708F144
:104C9000040805F11505D3E7BDE8FF9F2DE9FF45A1
:104CA0007D484FF07801018076484FF00501018082
:104CB000754840F23D11018074484FF03101018088
:104CC00073484FF08201018074484FF0BB010180AE
:104CD00073484FF00001018072484FF09A01018043
:104CE00071484FF0D201018070484FF014010180EB
:104CF0006F484FF0140101806E484FF000010180B1
:104D00006D484FF00001018062484FF0000101F54D
:104D1000A02101F1810101605E4800F104004FF023
:104D2000000101F5D01101F18101016000F10400E1
:104D30004FF0000101F53C1101F18101016000F12A
:104D400004004FF0000101F5880101F181010160CB
:104D500000F104004FF0000101F5B20101F1810101
:104D6000016000F104004FF0000101F5DC0101F1E8
:104D70008101016000F104004FF0000101F5030121
:104D800001F18101016000F104004FF0000101F523
:104D9000180101F18101016000F104004FF00001F0
:104DA00001F52D0101F18101016000F104004FF0D6
:104DB000000101F5420101F18101016000F10400EF
:104DC0004FF0000101F5570101F18101016000F18F
:104DD00004004FF0000101F56C0101F18101016057
:104DE00000F104004FF0000101F5803101F1807104
:104DF00001F18101016000F104004FF0000101F5B3
:104E0000B01101F1807101F18101016000F1040034
:104E10004FF0000101F52C1101F1807101F18101C8
:104E2000016016484FF03A010180244A4FF02D03EB
:104E30001380134C4FF47845C4E900564FF000003E
:104E40004FF02A060649087001F10101A6F101069A
:104E5000002EF8D11A484FF00001016032E0000046
:104E6000980000209E000020A4000020AA0000203E
:104E7000B0000020B6000020BC0000209000002000
:104E800094000020D4000020D6000020DA0000208A
:104E9000D8000020E0000020D2000020DC0000202C
:104EA000D0000020C4000020C6000020C800002060
:104EB000CA000020CC000020CE000020920000207C
:104EC000C2000020BDE8FF852DE9FF5F514BD3E90B
:104ED00000BCBBF5784F00D108E000F0FBF900F012
:104EE0000FF84FF6E07A00F031FA07E000F0B4F97D
:104EF00000F044F84FF6E07A00F028FABDE8FF9F92
:104F00002DE9FF5F00F012FA4FF00A064FF0050797
:104F10004FF4784800F065FE4FF01C064FF005078F
:104F20004FF4784800F08CFD4FF034064FF0050741
:104F30004FF4784800F01FFE4FF050064FF0050781
:104F40004FF4784800F037FD4FF062064FF0050748
:104F50004FF4784800F0CBFC4FF074064FF0050793
:104F60004FF4784800F03DFE4FF085064FF00507FE
:104F70004FF4784800F0FDFABDE8FF9F2DE9FF5F90
:104F800000F0D4F94FF00A064FF005074FF6E0782D
:104F900000F073FC4FF021064FF005074FF6E07864
:104FA00000F0CBFD4FF034064FF005074FF6E078E8
:104FB00000F081FB4FF050064FF005074FF6E07808
:104FC00000F0F9FC4FF062064FF005074FF6E0786D
:104FD00000F08DFC4FF074064FF005074FF6E078B7
:104FE00000F0FFFD4FF085064FF005074FF6E07823
:104FF00000F0BFFABDE8FF9F2DE9FF4F064801888A
:10500000B1F5837F1EDA00F00FF90D4605F1220598
:10501000058003E09400002090000020114BD3E9AC
:1050200000BCBBF5784F00D006E000F053F94FF616
:10503000E07A00F08BF905E000F00EF94FF6E07A27
:1050400000F084F9BDE8FF8F2DE9FF4F0648018885
:105050003A291FDD00F0E8F80D46A5F1220505808C
:1050600004E000009400002090000020744BD3E97D
:1050700000BCBBF5784F00D006E000F02BF94FF6EE
:10508000E07A00F063F905E000F0E6F84FF6E07A28
:1050900000F05CF9BDE8FF8F2DE9FF5F684BD3E9B5
:1050A00000BC684A4FF05603BBF5784F00D005E0CE
:1050B000138000F00FF9FFF723FF04E0138000F0E6
:1050C000CBF8FFF75BFFBDE8FF9F2DE9FF5F5C4B6F
:1050D000D3E900BCFFF7E0FF01F027F8594A4FF091
:1050E0005603138000F0A0F8564A4FF07003BBF54A
:1050F000784F00D005E0138000F0ECF8FFF700FFD8
:1051000004E0138000F0A8F8FFF738FFBDE8FF9F28
:105110002DE9FF5F4A4BD3E900BCFFF7D6FF01F052
:1051200004F8484A4FF07003138000F07DF8454AB8
:105130004FF08A03BBF5784F00D005E0138000F0F4
:10514000C9F8FFF7DDFE04E0138000F085F8FFF7F3
:1051500015FFBDE8FF9F2DE9FF5F394BD3E900BC88
:10516000FFF7D6FF00F0E1FF364A4FF08A031380C5
:1051700000F05AF8334A4FF0A403BBF5784F00D043
:1051800005E0138000F0A6F8FFF7BAFE04E01380F4
:1051900000F062F8FFF7F2FEBDE8FF9F2DE9FF5F28
:1051A000274BD3E900BCFFF7D6FF00F0BEFF254A2E
:1051B0004FF0A403138000F037F8224A4FF0BE03EB
:1051C000BBF5784F00D005E0138000F083F8FFF7BF
:1051D00097FE04E0138000F03FF8FFF7CFFEBDE834
:1051E000FF9F2DE9FF5F164BD3E900BCFFF7D6FF09
:1051F00000F09BFF134A4FF0BE03138000F014F839
:10520000104A4FF0D803BBF5784F00D005E013806B
:1052100000F060F8FFF774FE04E0138000F01CF863
:10522000FFF7ACFEBDE8FF9F2DE9FF470648018868
:105230000D46044A13881E464FF0000A06E000009F
:1052400094000020920000209000002000F01AFE40
:1052500000F07CF8BDE8FF872DE9FF4F0648018884
:105260000D46064A13881E464FF000084FF6E07AB6
:10527000034CA4F800A005E090000020920000205C
:105280009400002000F0FEFD2846A0F10500314604
:10529000A1F10201034603F10A030C4604F10404E0
:1052A0004FF0000A00F016FE2846A0F10200314639
:1052B000A1F10501034603F104030C4604F10A04BD
:1052C0004FF0000A00F006FE094A4FF02D0313804C
:1052D000BDE8FF8F2DE9FF4F064801880D46044ABF
:1052E00013881E464FF4784A034CA4F800A005E04A
:1052F00092000020900000209400002000F0C2FDE9
:105300002846A0F104003146A1F10201034603F151
:1053100007030C4604F104044FF0000A00F0DAFD24
:105320000F4A4FF02D031380BDE8FF8F2DE9FF4F8B
:105330004FF000004FF000014FF09B034FF02204AC
:105340004FF0000A00F0C6FDBDE8FF8F2DE9FF47D2
:10535000044801880D46024A13881E4604E00000F6
:10536000920000209000002028464FF03A012B4682
:105370004FF0430400F0AEFDA0F102004FF04101F8
:1053800000F0FEFCA0F101004FF0400100F0F8FC3D
:10539000A0F101004FF03F0100F0F2FC00F1060027
:1053A0004FF0410100F0ECFC00F101004FF0400132
:1053B00000F0E6FC00F101004FF03F0100F0E0FCDE
:1053C000BDE8FF871FB54FF02A0200F0BCFD024682
:1053D0004FEA122200F0CDFD024600F0CAFD0A4657
:1053E0004FEA122200F0C5FD0A4600F0C2FD4FF060
:1053F0002B0200F0A8FD1A464FEA122200F0B9FD78
:105400001A4600F0B6FD22464FEA122200F0B1FD26
:10541000224600F0AEFD4FF02C0200F094FD1FBDBF
:105420002DE9FF4530463946334603F10E033C462D
:1054300004F11704C24600F04DFD304600F10300B0
:10544000394601F10401334603F10B033C4604F1F4
:1054500013044FF0000A00F03DFDBDE8FF852DE983
:10546000FF4530463946334603F104033C4604F118
:105470001704C24600F02EFDBDE8FF852DE9FF456B
:1054800030463946334603F10E033C4604F104042A
:10549000C24600F01FFD304600F10A00394601F116
:1054A0000401334603F10E033C4604F10A04C246EC
:1054B00000F010FD3046394601F10A01334603F190
:1054C0000E033C4604F10E04C24600F003FD3046D4
:1054D000394601F10E01334603F104033C4604F161
:1054E0001304C24600F0F6FC3046394601F11301C0
:1054F000334603F10E033C4604F11704C24600F0A4
:10550000E9FCBDE8FF852DE9FF45304639463346C5
:1055100003F110033C4604F10304C24600F0DAFC38
:10552000304600F10D003946334603F110033C4686
:1055300004F11704C24600F0CDFC3046394601F1B3
:105540000A01334603F110033C4604F10D04C24640
:1055500000F0C0FC3046394601F11401334603F136
:1055600010033C4604F11704C24600F0B3FCBDE84A
:10557000FF852DE9FF4530463946334603F10403E4
:105580003C4604F11704C24600F0A4FC30463946FC
:1055900000F10E00034603F104033C4604F1170436
:1055A000C24600F097FC4FF00A053046394600F13C
:1055B000040000F0E5FBC24600F1010001F1010129
:1055C00000F0DEFB01F1010100F0DAFB01F1010165
:1055D00000F0D6FB01F1010100F0D2FB01F1010165
:1055E00000F0CEFBA1F10301A5F10105002DE3DCE4
:1055F000BDE8FF852DE9FF4530463946334603F1C6
:1056000004033C4604F11704C24600F063FC304634
:10561000394600F10E00034603F104033C4604F151
:105620001704C24600F056FC4FF0050530463946D7
:10563000C24600F1040000F0A3FB00F1010001F1FB
:10564000010100F09DFB01F1010100F099FB01F166
:10565000010100F095FB01F1010100F091FB01F166
:10566000010100F08DFBA1F10301A5F10105002D61
:10567000E3DC4FF0050501F1030100F10100A1F1A8
:10568000010100F07DFBA1F1010100F079FBA1F126
:10569000010100F075FBA1F1010100F071FBA1F126
:1056A000010100F06DFB01F10301A5F10105002DE1
:1056B000E3DCBDE8FF852DE9FF453046394633463A
:1056C00003F104033C4604F11704C24600F002FC57
:1056D0003046394600F10E00034603F104033C4610
:1056E00004F11704C24600F0F5FB4FF00505304603
:1056F0003946C24601F1170100F1040000F040FBF9
:1057000000F10100A1F1010100F03AFBA1F101015A
:1057100000F036FBA1F1010100F032FBA1F1010123
:1057200000F02EFBA1F1010100F02AFB01F10301C1
:10573000A5F10105002DE3DC4FF00505A1F1030102
:1057400000F1010001F1010100F01AFB01F101017A
:1057500000F016FB01F1010100F012FB01F1010163
:1057600000F00EFB01F1010100F00AFBA1F10301C1
:10577000A5F10105002DE3DCBDE8FF852DE9FF451E
:1057800030463946334603F10E033C4604F1030428
:10579000C24600F09FFB30463946334603F103030F
:1057A0003C4604F11704C24600F094FB30463946EB
:1057B00001F11401334603F10E033C4604F11704D2
:1057C000C24600F087FB304600F10A00394601F17D
:1057D0000C01334603F10E033C4604F11704C246A4
:1057E00000F078FB304600F10800394601F10C0169
:1057F000334603F110033C4604F10E04C24600F0A8
:1058000069FBBDE8FF852DE9FF453046394601F1CA
:105810000301334603F103033C4604F11704C24677
:1058200000F058FB304600F10900394601F1030150
:10583000334603F10C033C4604F11704C24600F062
:1058400049FB3046394601F10A01334603F10903A9
:105850003C4604F10E04C24600F03CFB304600F129
:1058600003003946334603F109033C4604F10304BF
:10587000C24600F02FFBBDE8FF852DE9FF4530460D
:105880003946334603F104033C4604F10904C24699
:1058900000F020FB304600F10E003946334603F19C
:1058A00012033C4604F10904C24600F013FB3046E3
:1058B00000F10400394601F10901334603F10E03FA
:1058C0003C4604F10D04C24600F004FB304600F1F2
:1058D0000700394601F10D01334603F10B033C4645
:1058E00004F11704C24600F0F5FABDE8FF852DE982
:1058F000FF4530463946334603F10E033C4604F17A
:105900001704C24600F0E6FA304600F104003946BA
:10591000334603F10A033C4604F113044FF0000A36
:1059200000F0D8FABDE8FF852DE9FF45304639463D
:10593000334603F105033C4604F10804C24600F077
:10594000C9FA304600F10A003946334603F10F0325
:105950003C4604F10804C24600F0BCFA304600F1AF
:105960000500394601F10801334603F10A033C46BC
:1059700004F10D04C24600F0ADFA3046394601F19B
:105980000D01334603F105033C4604F11704C246FA
:1059900000F0A0FA304600F10A00394601F10D018D
:1059A000334603F10F033C4604F11704C24600F0EE
:1059B00091FABDE8FF852DE9FF453046394633466B
:1059C00003F10E033C4604F10504C24600F082FADE
:1059D000304600F105003946334603F109033C46E1
:1059E00004F11704C24600F075FABDE8FF852DE901
:1059F000FF4530463946334603F10A033C4604F17D
:105A00000504C24600F066FA3046394601F112013B
:105A1000334603F10A033C4604F11704C24600F082
:105A200059FA304600F103003946334603F10703C3
:105A30003C4604F11704C24600F04CFABDE8FF856D
:105A40002DE9FF4530463946334603F110033C4605
:105A500004F10304C24600F03DFA304639463346AD
:105A600003F103033C4604F11704C24600F032FA86
:105A70003046394601F10A01334603F10C033C4636
:105A800004F10D04C24600F025FA3046394601F112
:105A90001401334603F110033C4604F11704C246D7
:105AA00000F018FABDE8FF852DE9FF45304639467C
:105AB000334603F10A033C4604F10504C24600F0F4
:105AC00009FA3046A0F10300394601F106013346D8
:105AD000A3F101033C4604F10A04C24600F0FAF9BE
